:020000040800F2
:10000000F8060020350200083D0200083F02000803
:1000100041020008430200084502000800000000F9
:10002000000000000000000000000000470200087F
:1000300049020008000000004B0200084D020008C1
:100040004F0200084F0200084F0200084F0200084C
:100050004F0200084F0200084F0200084F0200083C
:100060004F0200084F0200084F0200084F0200082C
:100070004F0200084F0200084F0200084F0200081C
:100080004F0200084F0200084F0200080000000065
:100090000000000000000000000000004F02000807
:1000A0004F0200084F0200084F0200084F020008EC
:1000B0004F0200084F0200084F0200084F020008DC
:1000C0004F0200084F0200084F0200084F020008CC
:1000D0004F0200084F0200084F0200080000000015
:1000E0004F0200084F0200084F0200080000000005
:1000F0000000000000000000000000004F020008A7
:10010000000000004F0200084F0200084F020008E4
:1001100000000000000000000000000000000000DF
:100120004F0200084F0200084F0200084F0200086B
:100130004F02000800000000000000000000000066
:100140000000000000000000000000004F02000856
:100150004F0200084F0200084F0200084F0200083B
:100160004F0200084F0200080000000000000000DD
:10017000000000000000000000000000000000007F
:10018000000000004F020008000000000000000016
:100190004F02000800F002F800F03CF80AA090E8D6
:1001A000000C82448344AAF10107DA4501D100F032
:1001B00031F8AFF2090EBAE80F0013F0010F18BFC3
:1001C000FB1A43F00103184780030000A00300005E
:1001D000103A24BF78C878C1FAD8520724BF30C873
:1001E00030C144BF04680C60704700000023002445
:1001F00000250026103A28BF78C1FBD8520728BF37
:1002000030C148BF0B6070471FB500F097F91FBDA4
:1002100010B510BD00F036F81146FFF7F5FF00F0FD
:10022000F5F800F054F803B4FFF7F2FF03BC00F058
:1002300057F800000948804709480047FEE7FEE7F5
:10024000FEE7FEE7FEE7FEE7FEE7FEE7FEE7FEE786
:1002500004480549054A064B70470000F1020008B2
:1002600095010008F8000020F8060020F8020020A0
:10027000F802002070477047704700000048704740
:10028000940000207546FFF7F9FFAE460500694669
:10029000534620F00700854618B020B5FFF7D8FF79
:1002A000BDE820404FF000064FF000074FF0000877
:1002B0004FF0000B21F00701AC46ACE8C009ACE8F8
:1002C000C009ACE8C009ACE8C0098D46704710B55C
:1002D0000446AFF300802046BDE81040FFF7A3BFFF
:1002E00001491820ABBEFEE726000200704700005F
:1002F0000548006840F47000034908604FF0006052
:10030000014980390860704788ED00E009490868B4
:100310000BE0002105E0084A52F82020074B1A6044
:10032000491C074A9142F6DB401C0649096888428D
:10033000EFDD70478800002000000020140C024010
:1003400020A107008C000020094908680BE000216B
:1003500005E0084A52F82020074B1A60491C074A5A
:100360009142F6DB401E064909688842EFDA704781
:100370008C00002000000020140C024020A1070087
:10038000880000201C480068032818D1112013E0C1
:100390001A4951F820101A4A51610021194A116076
:1003A00004E018490968491C164A11601549096892
:1003B000154A9142F5DB401C1828E9DD1BE00E4888
:1003C0000068042817D1182013E00C4951F82010B8
:1003D0000B4A516100210B4A116004E00949096888
:1003E000491C084A116007490968074A9142F5DB30
:1003F000401E1128E9DA704780000020000000202C
:100400000010024090000020C02709001C20424933
:1004100008604248424908600020091D08603F48C2
:10042000091D08600012091D08603C483D4908602C
:1004300000204860394888600012C86000203A49AE
:10044000086068E038481030006800F40050B0F5EB
:10045000005F15D135480068401C344908600846E3
:100460000068042801DD0020086031480068401C55
:100470002F49086008460068032801DD0020086055
:100480002B480068012804D0022812D0032830D15C
:100490001FE00020274908600920274908602348F9
:1004A0000068012802D1FFF731FF01E0FFF74CFFA0
:1004B0002EE00B201F49086010201F4908601B48D0
:1004C0000068012802D1FFF721FF01E0FFF73CFFA0
:1004D0001EE00020174908600820174908601348EB
:1004E0000068012802D1FFF711FF01E0FFF72CFFA0
:1004F0000EE000200F4908600F4908600B480068B3
:10050000012802D1FFF702FF01E0FFF71DFF00BF46
:1005100000BFFFF737FF95E73038024055555500CB
:10052000000C024000100240000802408000002041
:1005300084000020880000208C0000204FF04070D4
:10054000E1EE100A70470000680500080000002076
:1005500094000000D0010008FC0500089400002071
:1005600064060000EC0100083F00000006000000E7
:100570005B0000004F000000660000006D000000FE
:100580007D000000070000007F0000006700000001
:10059000770000007C000000390000005E000000D1
:1005A000790000007100000001000000020000005E
:1005B00004000000080000001000000020000000FF
:1005C0004000000080000000010000000200000068
:1005D00004000000080000001000000020000000DF
:1005E000400000008000000000000000000000004B
:0C05F000000000000000000000000000FF
:0400000508000235B8
:00000001FF
